{
  "contractName": "ERC20Token",
  "abi": [
    {
      "constant": true,
      "inputs": [],
      "name": "name",
      "outputs": [
        {
          "name": "",
          "type": "string"
        }
      ],
      "payable": false,
      "stateMutability": "view",
      "type": "function"
    },
    {
      "constant": true,
      "inputs": [
        {
          "name": "",
          "type": "address"
        }
      ],
      "name": "balances",
      "outputs": [
        {
          "name": "",
          "type": "uint256"
        }
      ],
      "payable": false,
      "stateMutability": "view",
      "type": "function"
    },
    {
      "constant": true,
      "inputs": [],
      "name": "decimals",
      "outputs": [
        {
          "name": "",
          "type": "uint8"
        }
      ],
      "payable": false,
      "stateMutability": "view",
      "type": "function"
    },
    {
      "constant": true,
      "inputs": [],
      "name": "_totalSupply",
      "outputs": [
        {
          "name": "",
          "type": "uint256"
        }
      ],
      "payable": false,
      "stateMutability": "view",
      "type": "function"
    },
    {
      "constant": true,
      "inputs": [
        {
          "name": "",
          "type": "address"
        },
        {
          "name": "",
          "type": "address"
        }
      ],
      "name": "allowed",
      "outputs": [
        {
          "name": "",
          "type": "uint256"
        }
      ],
      "payable": false,
      "stateMutability": "view",
      "type": "function"
    },
    {
      "constant": true,
      "inputs": [],
      "name": "symbol",
      "outputs": [
        {
          "name": "",
          "type": "string"
        }
      ],
      "payable": false,
      "stateMutability": "view",
      "type": "function"
    },
    {
      "anonymous": false,
      "inputs": [
        {
          "indexed": true,
          "name": "from",
          "type": "address"
        },
        {
          "indexed": true,
          "name": "to",
          "type": "address"
        },
        {
          "indexed": false,
          "name": "tokens",
          "type": "uint256"
        }
      ],
      "name": "Transfer",
      "type": "event"
    },
    {
      "anonymous": false,
      "inputs": [
        {
          "indexed": true,
          "name": "tokenOwner",
          "type": "address"
        },
        {
          "indexed": true,
          "name": "spender",
          "type": "address"
        },
        {
          "indexed": false,
          "name": "tokens",
          "type": "uint256"
        }
      ],
      "name": "Approval",
      "type": "event"
    },
    {
      "constant": false,
      "inputs": [
        {
          "name": "to",
          "type": "address"
        },
        {
          "name": "value",
          "type": "uint256"
        }
      ],
      "name": "transfer",
      "outputs": [
        {
          "name": "",
          "type": "bool"
        }
      ],
      "payable": false,
      "stateMutability": "nonpayable",
      "type": "function"
    },
    {
      "constant": false,
      "inputs": [
        {
          "name": "from",
          "type": "address"
        },
        {
          "name": "to",
          "type": "address"
        },
        {
          "name": "value",
          "type": "uint256"
        }
      ],
      "name": "transferFrom",
      "outputs": [
        {
          "name": "",
          "type": "bool"
        }
      ],
      "payable": false,
      "stateMutability": "nonpayable",
      "type": "function"
    },
    {
      "constant": false,
      "inputs": [
        {
          "name": "spender",
          "type": "address"
        },
        {
          "name": "value",
          "type": "uint256"
        }
      ],
      "name": "approve",
      "outputs": [
        {
          "name": "",
          "type": "bool"
        }
      ],
      "payable": false,
      "stateMutability": "nonpayable",
      "type": "function"
    },
    {
      "constant": true,
      "inputs": [
        {
          "name": "owner",
          "type": "address"
        },
        {
          "name": "spender",
          "type": "address"
        }
      ],
      "name": "allowance",
      "outputs": [
        {
          "name": "",
          "type": "uint256"
        }
      ],
      "payable": false,
      "stateMutability": "view",
      "type": "function"
    },
    {
      "constant": true,
      "inputs": [
        {
          "name": "owner",
          "type": "address"
        }
      ],
      "name": "balanceOf",
      "outputs": [
        {
          "name": "",
          "type": "uint256"
        }
      ],
      "payable": false,
      "stateMutability": "view",
      "type": "function"
    },
    {
      "constant": true,
      "inputs": [],
      "name": "totalSupply",
      "outputs": [
        {
          "name": "",
          "type": "uint256"
        }
      ],
      "payable": false,
      "stateMutability": "view",
      "type": "function"
    }
  ],
  "bytecode": "0x60806040526040518060400160405280600881526020017f4d7920546f6b656e0000000000000000000000000000000000000000000000008152506000908051906020019061004f9291906100d1565b506040518060400160405280600381526020017f544b4e00000000000000000000000000000000000000000000000000000000008152506001908051906020019061009b9291906100d1565b506012600260006101000a81548160ff021916908360ff160217905550620f42406003553480156100cb57600080fd5b50610176565b828054600181600116156101000203166002900490600052602060002090601f016020900481019282601f1061011257805160ff1916838001178555610140565b82800160010185558215610140579182015b8281111561013f578251825591602001919060010190610124565b5b50905061014d9190610151565b5090565b61017391905b8082111561016f576000816000905550600101610157565b5090565b90565b610d9d806101856000396000f3fe608060405234801561001057600080fd5b50600436106100b45760003560e01c80633eaaf86b116100715780633eaaf86b146102c25780635c658165146102e057806370a082311461035857806395d89b41146103b0578063a9059cbb14610433578063dd62ed3e14610499576100b4565b806306fdde03146100b9578063095ea7b31461013c57806318160ddd146101a257806323b872dd146101c057806327e235e314610246578063313ce5671461029e575b600080fd5b6100c1610511565b6040518080602001828103825283818151815260200191508051906020019080838360005b838110156101015780820151818401526020810190506100e6565b50505050905090810190601f16801561012e5780820380516001836020036101000a031916815260200191505b509250505060405180910390f35b6101886004803603604081101561015257600080fd5b81019080803573ffffffffffffffffffffffffffffffffffffffff169060200190929190803590602001909291905050506105af565b604051808215151515815260200191505060405180910390f35b6101aa6106a1565b6040518082815260200191505060405180910390f35b61022c600480360360608110156101d657600080fd5b81019080803573ffffffffffffffffffffffffffffffffffffffff169060200190929190803573ffffffffffffffffffffffffffffffffffffffff169060200190929190803590602001909291905050506106ab565b604051808215151515815260200191505060405180910390f35b6102886004803603602081101561025c57600080fd5b81019080803573ffffffffffffffffffffffffffffffffffffffff1690602001909291905050506109ed565b6040518082815260200191505060405180910390f35b6102a6610a05565b604051808260ff1660ff16815260200191505060405180910390f35b6102ca610a18565b6040518082815260200191505060405180910390f35b610342600480360360408110156102f657600080fd5b81019080803573ffffffffffffffffffffffffffffffffffffffff169060200190929190803573ffffffffffffffffffffffffffffffffffffffff169060200190929190505050610a1e565b6040518082815260200191505060405180910390f35b61039a6004803603602081101561036e57600080fd5b81019080803573ffffffffffffffffffffffffffffffffffffffff169060200190929190505050610a43565b6040518082815260200191505060405180910390f35b6103b8610a8c565b6040518080602001828103825283818151815260200191508051906020019080838360005b838110156103f85780820151818401526020810190506103dd565b50505050905090810190601f1680156104255780820380516001836020036101000a031916815260200191505b509250505060405180910390f35b61047f6004803603604081101561044957600080fd5b81019080803573ffffffffffffffffffffffffffffffffffffffff16906020019092919080359060200190929190505050610b2a565b604051808215151515815260200191505060405180910390f35b6104fb600480360360408110156104af57600080fd5b81019080803573ffffffffffffffffffffffffffffffffffffffff169060200190929190803573ffffffffffffffffffffffffffffffffffffffff169060200190929190505050610cea565b6040518082815260200191505060405180910390f35b60008054600181600116156101000203166002900480601f0160208091040260200160405190810160405280929190818152602001828054600181600116156101000203166002900480156105a75780601f1061057c576101008083540402835291602001916105a7565b820191906000526020600020905b81548152906001019060200180831161058a57829003601f168201915b505050505081565b600081600560003373ffffffffffffffffffffffffffffffffffffffff1673ffffffffffffffffffffffffffffffffffffffff16815260200190815260200160002060008573ffffffffffffffffffffffffffffffffffffffff1673ffffffffffffffffffffffffffffffffffffffff168152602001908152602001600020819055508273ffffffffffffffffffffffffffffffffffffffff163373ffffffffffffffffffffffffffffffffffffffff167f8c5be1e5ebec7d5bd14f71427d1e84f3dd0314c0f7b2291e5b200ac8c7c3b925846040518082815260200191505060405180910390a36001905092915050565b6000600354905090565b600080600560008673ffffffffffffffffffffffffffffffffffffffff1673ffffffffffffffffffffffffffffffffffffffff16815260200190815260200160002060003373ffffffffffffffffffffffffffffffffffffffff1673ffffffffffffffffffffffffffffffffffffffff168152602001908152602001600020549050828110156107a3576040517f08c379a00000000000000000000000000000000000000000000000000000000081526004018080602001828103825260118152602001807f616c6c6f77616e636520746f6f206c6f7700000000000000000000000000000081525060200191505060405180910390fd5b82600460008773ffffffffffffffffffffffffffffffffffffffff1673ffffffffffffffffffffffffffffffffffffffff168152602001908152602001600020541015610858576040517f08c379a00000000000000000000000000000000000000000000000000000000081526004018080602001828103825260158152602001807f746f6b656e2062616c616e636520746f6f206c6f77000000000000000000000081525060200191505060405180910390fd5b82600560008773ffffffffffffffffffffffffffffffffffffffff1673ffffffffffffffffffffffffffffffffffffffff16815260200190815260200160002060003373ffffffffffffffffffffffffffffffffffffffff1673ffffffffffffffffffffffffffffffffffffffff1681526020019081526020016000206000828254039250508190555082600460008773ffffffffffffffffffffffffffffffffffffffff1673ffffffffffffffffffffffffffffffffffffffff1681526020019081526020016000206000828254039250508190555082600460008673ffffffffffffffffffffffffffffffffffffffff1673ffffffffffffffffffffffffffffffffffffffff168152602001908152602001600020600082825401925050819055508373ffffffffffffffffffffffffffffffffffffffff168573ffffffffffffffffffffffffffffffffffffffff167fddf252ad1be2c89b69c2b068fc378daa952ba7f163c4a11628f55a4df523b3ef856040518082815260200191505060405180910390a360019150509392505050565b60046020528060005260406000206000915090505481565b600260009054906101000a900460ff1681565b60035481565b6005602052816000526040600020602052806000526040600020600091509150505481565b6000600460008373ffffffffffffffffffffffffffffffffffffffff1673ffffffffffffffffffffffffffffffffffffffff168152602001908152602001600020549050919050565b60018054600181600116156101000203166002900480601f016020809104026020016040519081016040528092919081815260200182805460018160011615610100020316600290048015610b225780601f10610af757610100808354040283529160200191610b22565b820191906000526020600020905b815481529060010190602001808311610b0557829003601f168201915b505050505081565b600081600460003373ffffffffffffffffffffffffffffffffffffffff1673ffffffffffffffffffffffffffffffffffffffff168152602001908152602001600020541015610be1576040517f08c379a00000000000000000000000000000000000000000000000000000000081526004018080602001828103825260158152602001807f746f6b656e2062616c616e636520746f6f206c6f77000000000000000000000081525060200191505060405180910390fd5b81600460003373ffffffffffffffffffffffffffffffffffffffff1673ffffffffffffffffffffffffffffffffffffffff1681526020019081526020016000206000828254039250508190555081600460008573ffffffffffffffffffffffffffffffffffffffff1673ffffffffffffffffffffffffffffffffffffffff168152602001908152602001600020600082825401925050819055508273ffffffffffffffffffffffffffffffffffffffff163373ffffffffffffffffffffffffffffffffffffffff167fddf252ad1be2c89b69c2b068fc378daa952ba7f163c4a11628f55a4df523b3ef846040518082815260200191505060405180910390a36001905092915050565b6000600560008473ffffffffffffffffffffffffffffffffffffffff1673ffffffffffffffffffffffffffffffffffffffff16815260200190815260200160002060008373ffffffffffffffffffffffffffffffffffffffff1673ffffffffffffffffffffffffffffffffffffffff1681526020019081526020016000205490509291505056fea165627a7a723058208649459532daf3615c03a51728027b13cd03fa2f799cd67204434987367289e70029",
  "source": "pragma solidity ^0.5.7;\r\n\r\ncontract ERC20Interface {\r\n    function transfer(address to, uint tokens) public returns (bool success);\r\n    function transferFrom(address from, address to, uint tokens) public returns (bool success);\r\n    function balanceOf(address tokenOwner) public view returns (uint balance);\r\n    function approve(address spender, uint tokens) public returns (bool success);\r\n    function allowance(address tokenOwner, address spender) public view returns (uint remaining);\r\n    function totalSupply() public view returns (uint);\r\n\r\n    event Transfer(address indexed from, address indexed to, uint tokens);\r\n    event Approval(address indexed tokenOwner, address indexed spender, uint tokens);\r\n}\r\n\r\ncontract ERC20Token is ERC20Interface {\r\n    string public name = 'My Token';\r\n    string public symbol= 'TKN';\r\n    uint8 public decimals = 18;\r\n    uint public _totalSupply = 1000000;\r\n    mapping(address => uint) public balances;\r\n    mapping(address => mapping(address => uint)) public allowed;\r\n        \r\n    function transfer(address to, uint value) public returns(bool) {\r\n        require(balances[msg.sender] >= value, 'token balance too low');\r\n        balances[msg.sender] -= value;\r\n        balances[to] += value;\r\n        emit Transfer(msg.sender, to, value);\r\n        return true;\r\n    }\r\n    \r\n    function transferFrom(address from, address to, uint value) public returns(bool) {\r\n        uint allowance = allowed[from][msg.sender];\r\n        require(allowance >= value, 'allowance too low');\r\n        require(balances[from] >= value, 'token balance too low');\r\n        allowed[from][msg.sender] -= value;\r\n        balances[from] -= value;\r\n        balances[to] += value;\r\n        emit Transfer(from, to, value);\r\n        return true;\r\n    }\r\n    \r\n    function approve(address spender, uint value) public returns(bool) {\r\n        allowed[msg.sender][spender] = value;\r\n        emit Approval(msg.sender, spender, value);\r\n        return true;\r\n    }\r\n    \r\n    function allowance(address owner, address spender) public view returns(uint) {\r\n        return allowed[owner][spender];\r\n    }\r\n    \r\n    function balanceOf(address owner) public view returns(uint) {\r\n        return balances[owner];\r\n    }\r\n\r\n    function totalSupply() public view returns (uint) {\r\n      return _totalSupply;\r\n    }\r\n}\r\n\r\ncontract ICO is ERC20Token {\r\n    struct Sale {\r\n        address investor;\r\n        uint quantity;\r\n    }\r\n    Sale[] public sales;\r\n    mapping(address => bool) public investors;\r\n    address public token;\r\n    address public admin;\r\n    uint public end;\r\n    uint public price;\r\n    uint public availableTokens;\r\n    uint public minPurchase;\r\n    uint public maxPurchase;\r\n    bool public released;\r\n    \r\n    constructor()\r\n        public {\r\n        token = address(new ERC20Token());\r\n\r\n        admin = msg.sender;\r\n    }\r\n\r\n    //I have added this function for the frontend\r\n    function getSale(address _investor) external view returns(uint) {\r\n      for(uint i = 0; i < sales.length; i++) {\r\n        if(sales[i].investor == _investor) {\r\n          return sales[i].quantity;\r\n        }\r\n      }\r\n      return 0;\r\n    }\r\n    \r\n    function start(\r\n        uint duration,\r\n        uint _price,\r\n        uint _availableTokens,\r\n        uint _minPurchase,\r\n        uint _maxPurchase)\r\n        external\r\n        onlyAdmin() \r\n        icoNotActive() {\r\n        require(duration > 0, 'duration should be > 0');\r\n        uint totalSupply = ERC20Token(token).totalSupply();\r\n        require(_availableTokens > 0 && _availableTokens <= totalSupply, 'totalSupply should be > 0 and <= totalSupply');\r\n        require(_minPurchase > 0, '_minPurchase should > 0');\r\n        require(_maxPurchase > 0 && _maxPurchase <= _availableTokens, '_maxPurchase should be > 0 and <= _availableTokens');\r\n        end = duration + now; \r\n        price = _price;\r\n        availableTokens = _availableTokens;\r\n        minPurchase = _minPurchase;\r\n        maxPurchase = _maxPurchase;\r\n    }\r\n    \r\n    function whitelist(address investor)\r\n        external\r\n        onlyAdmin() {\r\n        investors[investor] = true;    \r\n    }\r\n    \r\n    function buy()\r\n        payable\r\n        external\r\n        onlyInvestors()\r\n        icoActive() {\r\n        require(msg.value % price == 0, 'have to send a multiple of price');\r\n        require(msg.value >= minPurchase && msg.value <= maxPurchase, 'have to send between minPurchase and maxPurchase');\r\n        uint quantity = price * msg.value;\r\n        require(quantity <= availableTokens, 'Not enough tokens left for sale');\r\n        sales.push(Sale(\r\n            msg.sender,\r\n            quantity\r\n        ));\r\n        availableTokens -= quantity;\r\n    }\r\n    \r\n    function release()\r\n        external\r\n        onlyAdmin()\r\n        icoEnded()\r\n        tokensNotReleased() {\r\n        ERC20Token tokenInstance = ERC20Token(token);\r\n        for(uint i = 0; i < sales.length; i++) {\r\n            Sale storage sale = sales[i];\r\n            tokenInstance.transfer(sale.investor, sale.quantity);\r\n        }\r\n        released = true;\r\n    }\r\n    \r\n    function withdraw(\r\n        address payable to,\r\n        uint amount)\r\n        external\r\n        onlyAdmin()\r\n        icoEnded()\r\n        tokensReleased() {\r\n        to.transfer(amount);    \r\n    }\r\n    \r\n    modifier icoActive() {\r\n        require(end > 0 && now < end && availableTokens > 0, \"ICO must be active\");\r\n        _;\r\n    }\r\n    \r\n    modifier icoNotActive() {\r\n        require(end == 0, 'ICO should not be active');\r\n        _;\r\n    }\r\n    \r\n    modifier icoEnded() {\r\n        require(end > 0 && (now >= end || availableTokens == 0), 'ICO must have ended');\r\n        _;\r\n    }\r\n    \r\n    modifier tokensNotReleased() {\r\n        require(released == false, 'Tokens must NOT have been released');\r\n        _;\r\n    }\r\n    \r\n    modifier tokensReleased() {\r\n        require(released == true, 'Tokens must have been released');\r\n        _;\r\n    }\r\n    \r\n    modifier onlyInvestors() {\r\n        require(investors[msg.sender] == true, 'only investors');\r\n        _;\r\n    }\r\n    \r\n    modifier onlyAdmin() {\r\n        require(msg.sender == admin, 'only admin');\r\n        _;\r\n    }\r\n    \r\n}",
  "sourcePath": "C:/code/ico/contracts/ICO.sol",
  "compiler": {
    "name": "solc",
    "version": "0.5.7+commit.6da8b019.Emscripten.clang"
  },
  "schemaVersion": "3.4.1",
  "updatedAt": "2022-04-30T13:39:37.772Z",
  "devdoc": {
    "methods": {}
  },
  "userdoc": {
    "methods": {}
  }
}